{"abi":[{"type":"constructor","inputs":[],"stateMutability":"nonpayable"},{"type":"function","name":"DEFAULT_ADMIN_ROLE","inputs":[],"outputs":[{"name":"","type":"bytes32","internalType":"bytes32"}],"stateMutability":"view"},{"type":"function","name":"MAX_SUPPLY","inputs":[],"outputs":[{"name":"","type":"uint256","internalType":"uint256"}],"stateMutability":"view"},{"type":"function","name":"MINTER_ROLE","inputs":[],"outputs":[{"name":"","type":"bytes32","internalType":"bytes32"}],"stateMutability":"view"},{"type":"function","name":"UPGRADER_ROLE","inputs":[],"outputs":[{"name":"","type":"bytes32","internalType":"bytes32"}],"stateMutability":"view"},{"type":"function","name":"UPGRADE_INTERFACE_VERSION","inputs":[],"outputs":[{"name":"","type":"string","internalType":"string"}],"stateMutability":"view"},{"type":"function","name":"allowance","inputs":[{"name":"owner","type":"address","internalType":"address"},{"name":"spender","type":"address","internalType":"address"}],"outputs":[{"name":"","type":"uint256","internalType":"uint256"}],"stateMutability":"view"},{"type":"function","name":"approve","inputs":[{"name":"spender","type":"address","internalType":"address"},{"name":"value","type":"uint256","internalType":"uint256"}],"outputs":[{"name":"","type":"bool","internalType":"bool"}],"stateMutability":"nonpayable"},{"type":"function","name":"balanceOf","inputs":[{"name":"account","type":"address","internalType":"address"}],"outputs":[{"name":"","type":"uint256","internalType":"uint256"}],"stateMutability":"view"},{"type":"function","name":"cap","inputs":[],"outputs":[{"name":"","type":"uint256","internalType":"uint256"}],"stateMutability":"view"},{"type":"function","name":"decimals","inputs":[],"outputs":[{"name":"","type":"uint8","internalType":"uint8"}],"stateMutability":"view"},{"type":"function","name":"getRoleAdmin","inputs":[{"name":"role","type":"bytes32","internalType":"bytes32"}],"outputs":[{"name":"","type":"bytes32","internalType":"bytes32"}],"stateMutability":"view"},{"type":"function","name":"grantRole","inputs":[{"name":"role","type":"bytes32","internalType":"bytes32"},{"name":"account","type":"address","internalType":"address"}],"outputs":[],"stateMutability":"nonpayable"},{"type":"function","name":"hasRole","inputs":[{"name":"role","type":"bytes32","internalType":"bytes32"},{"name":"account","type":"address","internalType":"address"}],"outputs":[{"name":"","type":"bool","internalType":"bool"}],"stateMutability":"view"},{"type":"function","name":"initialize","inputs":[{"name":"name_","type":"string","internalType":"string"},{"name":"symbol_","type":"string","internalType":"string"},{"name":"admin","type":"address","internalType":"address"},{"name":"minter","type":"address","internalType":"address"}],"outputs":[],"stateMutability":"nonpayable"},{"type":"function","name":"mint","inputs":[{"name":"to","type":"address","internalType":"address"},{"name":"amount","type":"uint256","internalType":"uint256"}],"outputs":[],"stateMutability":"nonpayable"},{"type":"function","name":"name","inputs":[],"outputs":[{"name":"","type":"string","internalType":"string"}],"stateMutability":"view"},{"type":"function","name":"proxiableUUID","inputs":[],"outputs":[{"name":"","type":"bytes32","internalType":"bytes32"}],"stateMutability":"view"},{"type":"function","name":"renounceRole","inputs":[{"name":"role","type":"bytes32","internalType":"bytes32"},{"name":"callerConfirmation","type":"address","internalType":"address"}],"outputs":[],"stateMutability":"nonpayable"},{"type":"function","name":"revokeRole","inputs":[{"name":"role","type":"bytes32","internalType":"bytes32"},{"name":"account","type":"address","internalType":"address"}],"outputs":[],"stateMutability":"nonpayable"},{"type":"function","name":"supportsInterface","inputs":[{"name":"interfaceId","type":"bytes4","internalType":"bytes4"}],"outputs":[{"name":"","type":"bool","internalType":"bool"}],"stateMutability":"view"},{"type":"function","name":"symbol","inputs":[],"outputs":[{"name":"","type":"string","internalType":"string"}],"stateMutability":"view"},{"type":"function","name":"totalSupply","inputs":[],"outputs":[{"name":"","type":"uint256","internalType":"uint256"}],"stateMutability":"view"},{"type":"function","name":"transfer","inputs":[{"name":"to","type":"address","internalType":"address"},{"name":"value","type":"uint256","internalType":"uint256"}],"outputs":[{"name":"","type":"bool","internalType":"bool"}],"stateMutability":"nonpayable"},{"type":"function","name":"transferFrom","inputs":[{"name":"from","type":"address","internalType":"address"},{"name":"to","type":"address","internalType":"address"},{"name":"value","type":"uint256","internalType":"uint256"}],"outputs":[{"name":"","type":"bool","internalType":"bool"}],"stateMutability":"nonpayable"},{"type":"function","name":"upgradeToAndCall","inputs":[{"name":"newImplementation","type":"address","internalType":"address"},{"name":"data","type":"bytes","internalType":"bytes"}],"outputs":[],"stateMutability":"payable"},{"type":"event","name":"Approval","inputs":[{"name":"owner","type":"address","indexed":true,"internalType":"address"},{"name":"spender","type":"address","indexed":true,"internalType":"address"},{"name":"value","type":"uint256","indexed":false,"internalType":"uint256"}],"anonymous":false},{"type":"event","name":"Initialized","inputs":[{"name":"version","type":"uint64","indexed":false,"internalType":"uint64"}],"anonymous":false},{"type":"event","name":"RoleAdminChanged","inputs":[{"name":"role","type":"bytes32","indexed":true,"internalType":"bytes32"},{"name":"previousAdminRole","type":"bytes32","indexed":true,"internalType":"bytes32"},{"name":"newAdminRole","type":"bytes32","indexed":true,"internalType":"bytes32"}],"anonymous":false},{"type":"event","name":"RoleGranted","inputs":[{"name":"role","type":"bytes32","indexed":true,"internalType":"bytes32"},{"name":"account","type":"address","indexed":true,"internalType":"address"},{"name":"sender","type":"address","indexed":true,"internalType":"address"}],"anonymous":false},{"type":"event","name":"RoleRevoked","inputs":[{"name":"role","type":"bytes32","indexed":true,"internalType":"bytes32"},{"name":"account","type":"address","indexed":true,"internalType":"address"},{"name":"sender","type":"address","indexed":true,"internalType":"address"}],"anonymous":false},{"type":"event","name":"Transfer","inputs":[{"name":"from","type":"address","indexed":true,"internalType":"address"},{"name":"to","type":"address","indexed":true,"internalType":"address"},{"name":"value","type":"uint256","indexed":false,"internalType":"uint256"}],"anonymous":false},{"type":"event","name":"Upgraded","inputs":[{"name":"implementation","type":"address","indexed":true,"internalType":"address"}],"anonymous":false},{"type":"error","name":"AccessControlBadConfirmation","inputs":[]},{"type":"error","name":"AccessControlUnauthorizedAccount","inputs":[{"name":"account","type":"address","internalType":"address"},{"name":"neededRole","type":"bytes32","internalType":"bytes32"}]},{"type":"error","name":"AddressEmptyCode","inputs":[{"name":"target","type":"address","internalType":"address"}]},{"type":"error","name":"ERC1967InvalidImplementation","inputs":[{"name":"implementation","type":"address","internalType":"address"}]},{"type":"error","name":"ERC1967NonPayable","inputs":[]},{"type":"error","name":"ERC20ExceededCap","inputs":[{"name":"increasedSupply","type":"uint256","internalType":"uint256"},{"name":"cap","type":"uint256","internalType":"uint256"}]},{"type":"error","name":"ERC20InsufficientAllowance","inputs":[{"name":"spender","type":"address","internalType":"address"},{"name":"allowance","type":"uint256","internalType":"uint256"},{"name":"needed","type":"uint256","internalType":"uint256"}]},{"type":"error","name":"ERC20InsufficientBalance","inputs":[{"name":"sender","type":"address","internalType":"address"},{"name":"balance","type":"uint256","internalType":"uint256"},{"name":"needed","type":"uint256","internalType":"uint256"}]},{"type":"error","name":"ERC20InvalidApprover","inputs":[{"name":"approver","type":"address","internalType":"address"}]},{"type":"error","name":"ERC20InvalidCap","inputs":[{"name":"cap","type":"uint256","internalType":"uint256"}]},{"type":"error","name":"ERC20InvalidReceiver","inputs":[{"name":"receiver","type":"address","internalType":"address"}]},{"type":"error","name":"ERC20InvalidSender","inputs":[{"name":"sender","type":"address","internalType":"address"}]},{"type":"error","name":"ERC20InvalidSpender","inputs":[{"name":"spender","type":"address","internalType":"address"}]},{"type":"error","name":"FailedCall","inputs":[]},{"type":"error","name":"InvalidInitialization","inputs":[]},{"type":"error","name":"NotInitializing","inputs":[]},{"type":"error","name":"UUPSUnauthorizedCallContext","inputs":[]},{"type":"error","name":"UUPSUnsupportedProxiableUUID","inputs":[{"name":"slot","type":"bytes32","internalType":"bytes32"}]}],"bytecode":{"object":"0x60a080604052346100cc57306080527ff0c57e16840df040f15088dc2f81fe391c3923bec73e23a9662efc9c229c6a009081549060ff8260401c166100bd57506001600160401b036002600160401b031982821601610078575b6040516118a490816100d182396080518181816109600152610a140152f35b6001600160401b031990911681179091556040519081527fc7f505b2f371ae2175ee4913f4499e1f2633a7b5936321eed1cdaeb6115181d290602090a15f8080610059565b63f92ee8a960e01b8152600490fd5b5f80fdfe6080604090808252600480361015610015575f80fd5b5f3560e01c91826301ffc9a71461119b5750816306fdde03146110d5578163095ea7b31461102e57816318160ddd14610ff157816323b872dd14610f01578163248a9ca314610ecb5781632f2ff15d14610ea3578163313ce56714610e8857816332cb6b0c14610e62578163355274ea14610e2557816336568abe14610de157816340c10f1914610c515781634f1ef286146109c457816352d1902d1461094d57816370a08231146108f75781638f15b4141461043357816391d14854146103e357816395d89b41146102e5578163a217fddf146102cb578163a9059cbb1461029b578163ad3cb1cc14610237578163d5391393146101fd578163d547741f146101b557508063dd62ed3e146101705763f72c0d8b14610133575f80fd5b3461016c575f36600319011261016c57602090517f189ab7a9244df0848122154315af71fe140f3db0fe014031783b0946b8c9d2e38152f35b5f80fd5b503461016c578060031936011261016c5760209061018c611234565b61019d61019761124a565b9161133e565b9060018060a01b03165f528252805f20549051908152f35b823461016c578060031936011261016c576101fb91356101f660016101d861124a565b93835f525f8051602061184f8339815191526020525f200154611472565b61170b565b005b823461016c575f36600319011261016c57602090517f9f2df0fed2c77648de5860a4cc508cd0818c85b8b8a1ab4ceeef8d981c8956a68152f35b823461016c575f36600319011261016c5780519080820182811067ffffffffffffffff821117610288576102849350815260058252640352e302e360dc1b602083015251918291826111ed565b0390f35b604184634e487b7160e01b5f525260245ffd5b823461016c578060031936011261016c576020906102c46102ba611234565b6024359033611376565b5160018152f35b823461016c575f36600319011261016c57602090515f8152f35b823461016c575f36600319011261016c5780515f7f52c63247e1f47db19d5ce0460030c497f067ca4cebf71ba98eeadabe20bace0480549061032682611306565b808552916020916001918281169081156103b6575060011461035e575b610284868861035482890383611260565b51918291826111ed565b5f90815293507f46a2803e59a4de4e7a4c574b1243f25977ac4c77d5a1a4a609b5394cebb4a2aa5b8385106103a3575050505081016020016103548261028486610343565b8054868601840152938201938101610386565b90506102849795508693506020925061035494915060ff191682840152151560051b820101929486610343565b823461016c578060031936011261016c576020916103ff61124a565b90355f525f8051602061184f8339815191528352815f209060018060a01b03165f52825260ff815f20541690519015158152f35b90503461016c57608036600319011261016c5767ffffffffffffffff90803582811161016c5761046690369083016112e8565b9060243583811161016c5761047e90369083016112e8565b604435906001600160a01b0390818316830361016c57606435918216820361016c577ff0c57e16840df040f15088dc2f81fe391c3923bec73e23a9662efc9c229c6a009586549560ff878a1c161595828816978815806108f0575b6001809a1490816108e6575b1590816108dd575b506108ce5767ffffffffffffffff19811689178a55876108af575b5061051161178a565b61051961178a565b815183811161089c577f52c63247e1f47db19d5ce0460030c497f067ca4cebf71ba98eeadabe20bace03908061054f8354611306565b94601f9586811161082f575b506020908683116001146107b2575f926107a7575b50505f19600383901b1c1916908a1b1790555b835192831161079457507f52c63247e1f47db19d5ce0460030c497f067ca4cebf71ba98eeadabe20bace04926105b98454611306565b828111610732575b5060209183116001146106a757918061065394926106599796945f9261069c575b50505f19600383901b1c191690881b1790555b6105fd61178a565b61060561178a565b6b033b2e3c9fd0803ce80000007f0f070392f17d5f958cc1ac31867dabecfc5c9758b4a419a200803226d7155d005561063c61178a565b61064461178a565b61064d836114be565b50611548565b506115f5565b5061066057005b7fc7f505b2f371ae2175ee4913f4499e1f2633a7b5936321eed1cdaeb6115181d29260209268ff000000000000000019815416905551908152a1005b015190505f806105e2565b879291601f19831691855f527f46a2803e59a4de4e7a4c574b1243f25977ac4c77d5a1a4a609b5394cebb4a2aa925f5b81811061071a57509161065998979593918561065398969410610702575b505050811b0190556105f5565b01515f1960f88460031b161c191690555f80806106f5565b8284015185558b9690940193602093840193016106d7565b845f527f46a2803e59a4de4e7a4c574b1243f25977ac4c77d5a1a4a609b5394cebb4a2aa8380860160051c8201926020871061078b575b0160051c019089905b8281106107805750506105c1565b5f8155018990610772565b92508192610769565b604190634e487b7160e01b5f525260245ffd5b015190505f80610570565b908c9350601f19831691855f527f2ae08a8e29253f69ac5d979a101956ab8f8d9d7ded63fa7a83b16fc47648eab0925f5b818110610817575084116107ff575b505050811b019055610583565b01515f1960f88460031b161c191690555f80806107f2565b8284015185558f9690940193602093840193016107e3565b909150835f527f2ae08a8e29253f69ac5d979a101956ab8f8d9d7ded63fa7a83b16fc47648eab08680850160051c82019260208610610893575b918e91869594930160051c01915b82811061088557505061055b565b5f81558594508e9101610877565b92508192610869565b604182634e487b7160e01b5f525260245ffd5b68ffffffffffffffffff1916680100000000000000011789555f610508565b50895163f92ee8a960e01b8152fd5b9050155f6104ed565b303b1591506104e5565b50876104d9565b823461016c57602036600319011261016c576020906001600160a01b0361091c611234565b165f527f52c63247e1f47db19d5ce0460030c497f067ca4cebf71ba98eeadabe20bace008252805f20549051908152f35b823461016c575f36600319011261016c577f00000000000000000000000000000000000000000000000000000000000000006001600160a01b031630036109b757602090517f360894a13ba1a3210667c828492db98dca3e2076cc3735a920a3ca505d382bbc8152f35b5163703e46dd60e11b8152fd5b90508160031936011261016c576109d9611234565b602492833567ffffffffffffffff811161016c573660238201121561016c57610a0a903690868187013591016112b2565b6001600160a01b037f00000000000000000000000000000000000000000000000000000000000000008116308114908115610c23575b50610c13577f189ab7a9244df0848122154315af71fe140f3db0fe014031783b0946b8c9d2e390815f526020915f8051602061184f8339815191528352845f20335f52835260ff855f20541615610bf6575084169383516352d1902d60e01b815282818881895afa5f9181610bc7575b50610aca57505050505191634c9c8ce360e01b8352820152fd5b90868686938a7f360894a13ba1a3210667c828492db98dca3e2076cc3735a920a3ca505d382bbc91828103610bb25750843b15610b9e575080546001600160a01b031916821790558351907fbc7cd75a20ee27fd9adebab32041f755214dbc6bffa90cc0225b39da2e5c2d3b5f80a2855115610b855750505f8085856101fb97519101845af4913d15610b7b573d610b6d610b6482611296565b92519283611260565b81525f81943d92013e6117cb565b50606092506117cb565b93509350505034610b9257005b63b398979f60e01b8152fd5b8551634c9c8ce360e01b8152808501849052fd5b8651632a87526960e21b815280860191909152fd5b9091508381813d8311610bef575b610bdf8183611260565b8101031261016c5751905f610ab0565b503d610bd5565b845163e2517d3f60e01b8152338189015280890191909152604490fd5b825163703e46dd60e11b81528590fd5b9050817f360894a13ba1a3210667c828492db98dca3e2076cc3735a920a3ca505d382bbc541614155f610a40565b90503461016c578160031936011261016c57610c6b611234565b602435907f9f2df0fed2c77648de5860a4cc508cd0818c85b8b8a1ab4ceeef8d981c8956a6805f525f8051602061184f833981519152602052845f20335f5260205260ff855f20541615610dc357506001600160a01b03168015610dad577f52c63247e1f47db19d5ce0460030c497f067ca4cebf71ba98eeadabe20bace02918254818101809111610d9a5760205f927fddf252ad1be2c89b69c2b068fc378daa952ba7f163c4a11628f55a4df523b3ef9286558484527f52c63247e1f47db19d5ce0460030c497f067ca4cebf71ba98eeadabe20bace0082528784208181540190558751908152a37f0f070392f17d5f958cc1ac31867dabecfc5c9758b4a419a200803226d7155d00549054818111610d8157005b604493519263279e7e1560e21b84528301526024820152fd5b601185634e487b7160e01b5f525260245ffd5b835163ec442f0560e01b81525f81850152602490fd5b845163e2517d3f60e01b815233818601526024810191909152604490fd5b823461016c578060031936011261016c57610dfa61124a565b90336001600160a01b03831603610e1657506101fb913561170b565b5163334bd91960e11b81529050fd5b823461016c575f36600319011261016c576020907f0f070392f17d5f958cc1ac31867dabecfc5c9758b4a419a200803226d7155d00549051908152f35b823461016c575f36600319011261016c57602090516b033b2e3c9fd0803ce80000008152f35b823461016c575f36600319011261016c576020905160128152f35b823461016c578060031936011261016c576101fb9135610ec660016101d861124a565b61169b565b823461016c57602036600319011261016c57602091355f525f8051602061184f83398151915282526001815f2001549051908152f35b90503461016c57606036600319011261016c57610f1c611234565b610f2461124a565b9060443592610f328261133e565b335f52602052845f2054905f198210610f54575b6020866102c4878787611376565b848210610fc6576001600160a01b03831615610fb0573315610f9a57509181846102c494610f85602098979561133e565b335f52885203855f2055919394819350610f46565b6024905f875191634a1406b160e11b8352820152fd5b6024905f87519163e602df0560e01b8352820152fd5b8551637dc7a0d960e11b81523391810191825260208201929092526040810185905281906060010390fd5b823461016c575f36600319011261016c576020907f52c63247e1f47db19d5ce0460030c497f067ca4cebf71ba98eeadabe20bace02549051908152f35b823461016c578060031936011261016c57611047611234565b6024359033156110bf576001600160a01b03169081156110a9576020935061106e3361133e565b825f52845280835f205582519081527f8c5be1e5ebec7d5bd14f71427d1e84f3dd0314c0f7b2291e5b200ac8c7c3b925843392a35160018152f35b8251634a1406b160e11b81525f81860152602490fd5b825163e602df0560e01b81525f81860152602490fd5b823461016c575f36600319011261016c5780515f7f52c63247e1f47db19d5ce0460030c497f067ca4cebf71ba98eeadabe20bace0380549061111682611306565b808552916020916001918281169081156103b6575060011461114357610284868861035482890383611260565b5f90815293507f2ae08a8e29253f69ac5d979a101956ab8f8d9d7ded63fa7a83b16fc47648eab05b838510611188575050505081016020016103548261028486610343565b805486860184015293820193810161116b565b903461016c57602036600319011261016c57359063ffffffff60e01b821680920361016c57602091637965db0b60e01b81149081156111dc575b5015158152f35b6301ffc9a760e01b149050836111d5565b602080825282518183018190529093925f5b82811061122057505060409293505f838284010152601f8019910116010190565b8181018601518482016040015285016111ff565b600435906001600160a01b038216820361016c57565b602435906001600160a01b038216820361016c57565b90601f8019910116810190811067ffffffffffffffff82111761128257604052565b634e487b7160e01b5f52604160045260245ffd5b67ffffffffffffffff811161128257601f01601f191660200190565b9291926112be82611296565b916112cc6040519384611260565b82948184528183011161016c578281602093845f960137010152565b9080601f8301121561016c57816020611303933591016112b2565b90565b90600182811c92168015611334575b602083101461132057565b634e487b7160e01b5f52602260045260245ffd5b91607f1691611315565b6001600160a01b03165f9081527f52c63247e1f47db19d5ce0460030c497f067ca4cebf71ba98eeadabe20bace016020526040902090565b916001600160a01b0380841692831561145a571692831561144257825f527f52c63247e1f47db19d5ce0460030c497f067ca4cebf71ba98eeadabe20bace008060205260405f20549183831061140f575091806020927fddf252ad1be2c89b69c2b068fc378daa952ba7f163c4a11628f55a4df523b3ef94865f5284520360405f2055845f5260405f20818154019055604051908152a3565b60405163391434e360e21b81526001600160a01b0391909116600482015260248101929092525060448101829052606490fd5b60405163ec442f0560e01b81525f6004820152602490fd5b604051634b637e8f60e11b81525f6004820152602490fd5b805f525f8051602061184f83398151915260205260405f20335f5260205260ff60405f205416156114a05750565b6044906040519063e2517d3f60e01b82523360048301526024820152fd5b6001600160a01b03165f8181527fb7db2dd08fcb62d0c9e08c51941cae53c267786a0b75803fb7960902fc8ef97d60205260409020545f8051602061184f8339815191529060ff16611542575f805260205260405f20815f5260205260405f20600160ff1982541617905533905f5f8051602061182f8339815191528180a4600190565b50505f90565b6001600160a01b03165f8181527f549fe2656c81d2947b3b913f0a53b9ea86c71e049f3a1b8aa23c09a8a05cb8d460205260409020547f9f2df0fed2c77648de5860a4cc508cd0818c85b8b8a1ab4ceeef8d981c8956a691905f8051602061184f8339815191529060ff166115ee57825f5260205260405f20815f5260205260405f20600160ff1982541617905533915f8051602061182f8339815191525f80a4600190565b5050505f90565b6001600160a01b03165f8181527fab71e3f32666744d246edff3f96e4bdafee2e9867098cdd118a979a7464786a860205260409020547f189ab7a9244df0848122154315af71fe140f3db0fe014031783b0946b8c9d2e391905f8051602061184f8339815191529060ff166115ee57825f5260205260405f20815f5260205260405f20600160ff1982541617905533915f8051602061182f8339815191525f80a4600190565b90815f525f8051602061184f8339815191528060205260405f209160018060a01b031691825f5260205260ff60405f205416155f146115ee57825f5260205260405f20815f5260205260405f20600160ff1982541617905533915f8051602061182f8339815191525f80a4600190565b90815f525f8051602061184f8339815191528060205260405f209160018060a01b031691825f5260205260ff60405f2054165f146115ee57825f5260205260405f20815f5260205260405f2060ff19815416905533917ff6391f5c32d9c69d2a47ea670b442974b53935d1edc7fd64eb21e047a839171b5f80a4600190565b60ff7ff0c57e16840df040f15088dc2f81fe391c3923bec73e23a9662efc9c229c6a005460401c16156117b957565b604051631afcd79f60e31b8152600490fd5b906117f257508051156117e057805190602001fd5b60405163d6bda27560e01b8152600490fd5b81511580611825575b611803575090565b604051639996b31560e01b81526001600160a01b039091166004820152602490fd5b50803b156117fb56fe2f8788117e7eff1d82e926ec794901d17c78024a50270940304540a733656f0d02dd7bc7dec4dceedda775e58dd541e08a116c6c53815c0bd028192f7b626800a264697066735822122056ea5d610cb155dad71d56beefe313c9c908a00899a17bac6a8f575e2666304964736f6c63430008170033","linkReferences":{}},"methodIdentifiers":{"DEFAULT_ADMIN_ROLE()":"a217fddf","MAX_SUPPLY()":"32cb6b0c","MINTER_ROLE()":"d5391393","UPGRADER_ROLE()":"f72c0d8b","UPGRADE_INTERFACE_VERSION()":"ad3cb1cc","allowance(address,address)":"dd62ed3e","approve(address,uint256)":"095ea7b3","balanceOf(address)":"70a08231","cap()":"355274ea","decimals()":"313ce567","getRoleAdmin(bytes32)":"248a9ca3","grantRole(bytes32,address)":"2f2ff15d","hasRole(bytes32,address)":"91d14854","initialize(string,string,address,address)":"8f15b414","mint(address,uint256)":"40c10f19","name()":"06fdde03","proxiableUUID()":"52d1902d","renounceRole(bytes32,address)":"36568abe","revokeRole(bytes32,address)":"d547741f","supportsInterface(bytes4)":"01ffc9a7","symbol()":"95d89b41","totalSupply()":"18160ddd","transfer(address,uint256)":"a9059cbb","transferFrom(address,address,uint256)":"23b872dd","upgradeToAndCall(address,bytes)":"4f1ef286"},"id":43}