{"abi":[{"type":"constructor","inputs":[],"stateMutability":"nonpayable"},{"type":"function","name":"CREATOR_ALLOCATION","inputs":[],"outputs":[{"name":"","type":"uint256","internalType":"uint256"}],"stateMutability":"view"},{"type":"function","name":"LIQUIDITY_ALLOCATION","inputs":[],"outputs":[{"name":"","type":"uint256","internalType":"uint256"}],"stateMutability":"view"},{"type":"function","name":"PLATFORM_FEE_ALLOCATION","inputs":[],"outputs":[{"name":"","type":"uint256","internalType":"uint256"}],"stateMutability":"view"},{"type":"function","name":"SALE_ALLOCATION","inputs":[],"outputs":[{"name":"","type":"uint256","internalType":"uint256"}],"stateMutability":"view"},{"type":"function","name":"UPGRADE_INTERFACE_VERSION","inputs":[],"outputs":[{"name":"","type":"string","internalType":"string"}],"stateMutability":"view"},{"type":"function","name":"buyTokens","inputs":[{"name":"usdcAmount","type":"uint256","internalType":"uint256"}],"outputs":[],"stateMutability":"nonpayable"},{"type":"function","name":"calculateTokenAmount","inputs":[{"name":"usdcAmount","type":"uint256","internalType":"uint256"}],"outputs":[{"name":"","type":"uint256","internalType":"uint256"}],"stateMutability":"view"},{"type":"function","name":"finalizeSale","inputs":[],"outputs":[],"stateMutability":"nonpayable"},{"type":"function","name":"fundCreator","inputs":[],"outputs":[{"name":"","type":"address","internalType":"address"}],"stateMutability":"view"},{"type":"function","name":"getCurrentPrice","inputs":[],"outputs":[{"name":"","type":"uint256","internalType":"uint256"}],"stateMutability":"view"},{"type":"function","name":"initialize","inputs":[{"name":"_token","type":"address","internalType":"address"},{"name":"_usdc","type":"address","internalType":"address"},{"name":"_router","type":"address","internalType":"address"},{"name":"_fundCreator","type":"address","internalType":"address"},{"name":"_platform","type":"address","internalType":"address"},{"name":"_reserveRatio","type":"uint256","internalType":"uint256"}],"outputs":[],"stateMutability":"nonpayable"},{"type":"function","name":"isFinalized","inputs":[],"outputs":[{"name":"","type":"bool","internalType":"bool"}],"stateMutability":"view"},{"type":"function","name":"owner","inputs":[],"outputs":[{"name":"","type":"address","internalType":"address"}],"stateMutability":"view"},{"type":"function","name":"platform","inputs":[],"outputs":[{"name":"","type":"address","internalType":"address"}],"stateMutability":"view"},{"type":"function","name":"proxiableUUID","inputs":[],"outputs":[{"name":"","type":"bytes32","internalType":"bytes32"}],"stateMutability":"view"},{"type":"function","name":"renounceOwnership","inputs":[],"outputs":[],"stateMutability":"nonpayable"},{"type":"function","name":"reserveRatio","inputs":[],"outputs":[{"name":"","type":"uint256","internalType":"uint256"}],"stateMutability":"view"},{"type":"function","name":"token","inputs":[],"outputs":[{"name":"","type":"address","internalType":"contract LaunchpadToken"}],"stateMutability":"view"},{"type":"function","name":"tokensSold","inputs":[],"outputs":[{"name":"","type":"uint256","internalType":"uint256"}],"stateMutability":"view"},{"type":"function","name":"transferOwnership","inputs":[{"name":"newOwner","type":"address","internalType":"address"}],"outputs":[],"stateMutability":"nonpayable"},{"type":"function","name":"uniswapRouter","inputs":[],"outputs":[{"name":"","type":"address","internalType":"contract IUniswapV2Router02"}],"stateMutability":"view"},{"type":"function","name":"upgradeToAndCall","inputs":[{"name":"newImplementation","type":"address","internalType":"address"},{"name":"data","type":"bytes","internalType":"bytes"}],"outputs":[],"stateMutability":"payable"},{"type":"function","name":"usdc","inputs":[],"outputs":[{"name":"","type":"address","internalType":"contract IERC20"}],"stateMutability":"view"},{"type":"function","name":"usdcRaised","inputs":[],"outputs":[{"name":"","type":"uint256","internalType":"uint256"}],"stateMutability":"view"},{"type":"event","name":"Initialized","inputs":[{"name":"version","type":"uint64","indexed":false,"internalType":"uint64"}],"anonymous":false},{"type":"event","name":"LiquidityAdded","inputs":[{"name":"pair","type":"address","indexed":true,"internalType":"address"},{"name":"tokensAdded","type":"uint256","indexed":false,"internalType":"uint256"},{"name":"usdcAdded","type":"uint256","indexed":false,"internalType":"uint256"}],"anonymous":false},{"type":"event","name":"OwnershipTransferred","inputs":[{"name":"previousOwner","type":"address","indexed":true,"internalType":"address"},{"name":"newOwner","type":"address","indexed":true,"internalType":"address"}],"anonymous":false},{"type":"event","name":"SaleFinalized","inputs":[{"name":"totalTokensSold","type":"uint256","indexed":false,"internalType":"uint256"},{"name":"totalUsdcRaised","type":"uint256","indexed":false,"internalType":"uint256"}],"anonymous":false},{"type":"event","name":"TokensPurchased","inputs":[{"name":"buyer","type":"address","indexed":true,"internalType":"address"},{"name":"usdcAmount","type":"uint256","indexed":false,"internalType":"uint256"},{"name":"tokensReceived","type":"uint256","indexed":false,"internalType":"uint256"},{"name":"currentPrice","type":"uint256","indexed":false,"internalType":"uint256"}],"anonymous":false},{"type":"event","name":"Upgraded","inputs":[{"name":"implementation","type":"address","indexed":true,"internalType":"address"}],"anonymous":false},{"type":"error","name":"AddressEmptyCode","inputs":[{"name":"target","type":"address","internalType":"address"}]},{"type":"error","name":"ERC1967InvalidImplementation","inputs":[{"name":"implementation","type":"address","internalType":"address"}]},{"type":"error","name":"ERC1967NonPayable","inputs":[]},{"type":"error","name":"FailedCall","inputs":[]},{"type":"error","name":"InvalidInitialization","inputs":[]},{"type":"error","name":"NotInitializing","inputs":[]},{"type":"error","name":"OwnableInvalidOwner","inputs":[{"name":"owner","type":"address","internalType":"address"}]},{"type":"error","name":"OwnableUnauthorizedAccount","inputs":[{"name":"account","type":"address","internalType":"address"}]},{"type":"error","name":"ReentrancyGuardReentrantCall","inputs":[]},{"type":"error","name":"UUPSUnauthorizedCallContext","inputs":[]},{"type":"error","name":"UUPSUnsupportedProxiableUUID","inputs":[{"name":"slot","type":"bytes32","internalType":"bytes32"}]}],"bytecode":{"object":"0x60a080604052346100cc57306080527ff0c57e16840df040f15088dc2f81fe391c3923bec73e23a9662efc9c229c6a009081549060ff8260401c166100bd57506001600160401b036002600160401b031982821601610078575b604051611f9690816100d18239608051818181610ed40152610fd30152f35b6001600160401b031990911681179091556040519081527fc7f505b2f371ae2175ee4913f4499e1f2633a7b5936321eed1cdaeb6115181d290602090a15f8080610059565b63f92ee8a960e01b8152600490fd5b5f80fdfe6080604081815260049182361015610015575f80fd5b5f925f3560e01c9182630c7d5cd814611adc575081632bc7306314611ab75781633610724e1461123957816339433a92146112135781633e413bee146111ea5781634bde38c8146111c25781634f1ef28614610f57578163518ab2a814610f3857816352d1902d14610ebf57816358a687ec146107ac578163715018a614610743578163735de9f71461071a5781638d4e4083146106f65781638da5cb5b146106c157816392d6b6f3146106a257816395b6ef0c146102dd578163a24bcf46146102bd578163ad3cb1cc1461021a57508063b1ef04e1146101f2578063de1b27f5146101cc578063eb91d37e146101a9578063f2fde38b14610179578063f9428f38146101545763fc0c546a1461012a575f80fd5b34610150578160031936011261015057905490516001600160a01b039091168152602090f35b5080fd5b5034610150578160031936011261015057602090516acecb8f27f4200f3a0000008152f35b82346101a65760203660031901126101a6576101a3610196611af6565b61019e611e44565b611d85565b80f35b80fd5b50346101505781600319360112610150576020906101c5611d39565b9051908152f35b5034610150578160031936011261015057602090516b019d971e4fe8401e740000008152f35b503461015057816003193601126101505760035490516001600160a01b039091168152602090f35b9050346102b957826003193601126102b9578151908282019082821067ffffffffffffffff8311176102a65750825260058152602090640352e302e360dc1b6020820152825193849260208452825192836020860152825b84811061029057505050828201840152601f01601f19168101030190f35b8181018301518882018801528795508201610272565b604190634e487b7160e01b5f525260245ffd5b8280fd5b8284346101a65760203660031901126101a657506101c560209235611ca9565b9050346102b95760c03660031901126102b9576102f8611af6565b6001600160a01b03916024803584811692919083900361069e57604490813586811680910361069e576064908135958887169283880361069e57608435958a871680970361069e5760ff9a8c9a60a4359a7ff0c57e16840df040f15088dc2f81fe391c3923bec73e23a9662efc9c229c6a009d8e54809e1c16159c8d67ffffffffffffffff821680159182610696575b50600114908161068c575b159081610683575b5061067257908e6103cf928f600167ffffffffffffffff198316178355610652575b50506103c7611e7c565b61019e611e7c565b6103d7611e7c565b6103df611e7c565b60015f80516020611f41833981519152556103f8611e7c565b169586156106125783156105d257841561059257851561054557871561050557891515806104f8575b156104c0575050506bffffffffffffffffffffffff60a01b93848c5416178b55836001541617600155826002541617600255816003541617600355825416179055600555836006558360075560ff196008541660085561047f578280f35b805468ff00000000000000001916905551600181527fc7f505b2f371ae2175ee4913f4499e1f2633a7b5936321eed1cdaeb6115181d290602090a15f808280f35b8891601574496e76616c6964207265736572766520726174696f60581b928f602090519562461bcd60e51b8752860152840152820152fd5b50620f42408a1115610421565b8891601f7f506c6174666f726d20616464726573732063616e6e6f74206265207a65726f00928f602090519562461bcd60e51b8752860152840152820152fd5b6084927f46756e642063726561746f7220616464726573732063616e6e6f74206265207a8a938f6265726f60e81b946020602392519762461bcd60e51b8952880152860152840152820152fd5b8891601d7f526f7574657220616464726573732063616e6e6f74206265207a65726f000000928f602090519562461bcd60e51b8752860152840152820152fd5b8891601b7f5553444320616464726573732063616e6e6f74206265207a65726f0000000000928f602090519562461bcd60e51b8752860152840152820152fd5b8891601c7f546f6b656e20616464726573732063616e6e6f74206265207a65726f00000000928f602090519562461bcd60e51b8752860152840152820152fd5b68ffffffffffffffffff1916680100000000000000011790558e5f6103bd565b508e5163f92ee8a960e01b81528b90fd5b9050155f61039b565b303b159150610393565b91508f610388565b5f80fd5b5050346101505781600319360112610150576020906007549051908152f35b5050346101505781600319360112610150575f80516020611f218339815191525490516001600160a01b039091168152602090f35b50503461015057816003193601126101505760209060ff6008541690519015158152f35b50503461015057816003193601126101505760025490516001600160a01b039091168152602090f35b83346101a657806003193601126101a65761075c611e44565b5f80516020611f2183398151915280546001600160a01b031981169091555f906001600160a01b03167f8be0079c531659141344cd1fd0a4f28419497f9722a3daafe3b4186f6b6457e08280a380f35b919050346102b957826003193601126102b9576107c7611df6565b600854906107d860ff831615611b72565b5f80516020611f21833981519152546001600160a01b039390841633148015610ea8575b15610e75576001809360ff1916176008558385541685856003541692823b15610150578185516340c10f1960e01b958682528382015281816024966aa56fa5b99019a5c8000000888301528160449586925af18015610e3f57908491610e61575b508890541688835416813b15610d565784918383928a5194859384928c8452898401526a295be96e640669720000008b8401525af18015610e3f57908491610e4d575b5054881694853b15610e49578651908152308382015283818381836acecb8f27f4200f3a0000009a8b8b8401525af18015610e3f57908491610e2b575b5050600754946108f086891c8097611beb565b90898954168a60035416895180928163a9059cbb60e01b998a82528161093160209e8f978d840160209093929193604081019460018060a01b031681520152565b03925af1908115610d9c578c91610e0e575b5015610dcd578a8481896109968e8d818554169160025416905194858094819363095ea7b360e01b998a8452830160206acecb8f27f4200f3a00000091939293604081019460018060a01b031681520152565b03925af18015610dc3578b6109e5948f92948f84908f97968b97610da6575b505416936002541692519687958694859384528d840160209093929193604081019460018060a01b031681520152565b03925af18015610d9c57610d7f575b506103844201804211610d6d57898b9796959493928d928960025416918a808654169454169a60035416908d519b8c9562e8e33760e81b87528a8701528b860152878501528560648501528460848501528460a485015260c484015260e4830152815a9361010492606095f1938b8515610d6257918b8992848d959a8199610d1a575b50610a8b89610a858d611bbe565b95611beb565b938d81610c5d575b505083610bd9575b50506002548b5163c45a015560e01b815296945086925084918391165afa928315610bcf5790879392918c93610bb0575b508a808d541693818c54168b51988996879563e6a4390560e01b8752860152840152165afa918215610ba657967fac1d76749e5447b7b16f5ab61447e1bd502f3bb4807af3b28e620d1700a6ee459286927f17b1a568460bc127a7f9a9677d502ac593fa4af690a1c3aed38bda591e196e2e98998b92610b77575b508351958652868601521692a260065490600754908351928352820152a15f80516020611f418339815191525580f35b610b98919250873d8911610b9f575b610b908183611b34565b810190611e25565b905f610b47565b503d610b86565b85513d8a823e3d90fd5b610bc8919350843d8611610b9f57610b908183611b34565b915f610acc565b88513d8d823e3d90fd5b94546003548d5192835283166001600160a01b0316888301908152602081019490945290948593849003604001928492165af1908115610bcf5790610c25918c91610c30575b50611c59565b87865f8b818e610a9b565b610c509150883d8a11610c56575b610c488183611b34565b810190611c41565b5f610c1f565b503d610c3e565b825460035491518581529186166001600160a01b03168b83019081526020810193909352959750929592949293859316918391829060400103925af1908115610d10578d91610cf3575b5015610cba5789918b89928e5f8d610a93565b885162461bcd60e51b815280850189905260158188015274151bdad95b881d1c985b9cd9995c8819985a5b1959605a1b81850152606490fd5b610d0a9150893d8b11610c5657610c488183611b34565b5f610ca7565b8a513d8f823e3d90fd5b9a50975092505091506060873d606011610d5a575b81610d3c60609383611b34565b81010312610d565789918b8992838a519a0151975f610a77565b8480fd5b3d9150610d2f565b8951903d90823e3d90fd5b634e487b7160e01b8c5260118552868cfd5b610d9590883d8a11610c5657610c488183611b34565b505f6109f4565b89513d8e823e3d90fd5b610dbc90893d8b11610c5657610c488183611b34565b505f6109b5565b8b513d85823e3d90fd5b875162461bcd60e51b8152808501889052601f818801527f55534443207472616e7366657220746f2063726561746f72206661696c65640081850152606490fd5b610e259150883d8a11610c5657610c488183611b34565b5f610943565b610e3490611b0c565b6102b957825f6108dd565b87513d86823e3d90fd5b8380fd5b610e5690611b0c565b6102b957825f6108a0565b610e6a90611b0c565b6102b957825f61085d565b6020606492519162461bcd60e51b8352820152600e60248201526d139bdd08185d5d1a1bdc9a5e995960921b6044820152fd5b506b019d971e4fe8401e74000000600654146107fc565b8284346101a657806003193601126101a657507f00000000000000000000000000000000000000000000000000000000000000006001600160a01b03163003610f2b57602090517f360894a13ba1a3210667c828492db98dca3e2076cc3735a920a3ca505d382bbc8152f35b5163703e46dd60e11b8152fd5b5050346101505781600319360112610150576020906006549051908152f35b918091506003193601126102b957610f6d611af6565b90602493843567ffffffffffffffff811161015057366023820112156101505780850135610f9a81611b56565b94610fa785519687611b34565b81865260209182870193368a83830101116111be578186928b8693018737880101526001600160a01b037f00000000000000000000000000000000000000000000000000000000000000008116308114908115611190575b506111805761100c611e44565b81169585516352d1902d60e01b815283818a818b5afa86918161114d575b50611046575050505050505191634c9c8ce360e01b8352820152fd5b9088888894938c7f360894a13ba1a3210667c828492db98dca3e2076cc3735a920a3ca505d382bbc918281036111385750853b15611124575080546001600160a01b031916821790558451889392917fbc7cd75a20ee27fd9adebab32041f755214dbc6bffa90cc0225b39da2e5c2d3b8580a28251156111065750506110f89582915190845af4913d156110fc573d6110ea6110e182611b56565b92519283611b34565b81528581943d92013e611ebd565b5080f35b5060609250611ebd565b95509550505050503461111857505080f35b63b398979f60e01b8152fd5b8651634c9c8ce360e01b8152808501849052fd5b8751632a87526960e21b815280860191909152fd5b9091508481813d8311611179575b6111658183611b34565b810103126111755751905f61102a565b8680fd5b503d61115b565b855163703e46dd60e11b81528890fd5b9050817f360894a13ba1a3210667c828492db98dca3e2076cc3735a920a3ca505d382bbc541614155f610fff565b8580fd5b9050346102b957826003193601126102b9575490516001600160a01b03909116815260209150f35b50503461015057816003193601126101505760015490516001600160a01b039091168152602090f35b505034610150578160031936011261015057602090516a295be96e640669720000008152f35b9190503461069e576020908160031936011261069e5782359161125a611df6565b8261126a60ff6008541615611b72565b8315611a6957600654906b019d971e4fe8401e740000009485831015611a265761129390611ca9565b9182156119ea5785038581116119d7578083116119b2575b5060018060a01b039560019587875416908651946323b872dd60e01b86523384870152602495308782015287816064815f6044988b8a8401525af19081156119a857906112fe915f916119915750611c59565b895f541694853b1561069e5788516340c10f1960e01b808252338783019081526020810185905290975f9183919082908490829060400103925af1801561198757611970575b5090829161135482600654611c9c565b918260065561136582600754611c9c565b600755611370611d39565b908b519283528a8301528a8201527f0d1a0d5e3d583a0e92588799dd06e50fd78c07daf05f0cc06d7b848b1ca445f160603392a2146113be575b89885f80516020611f418339815191525580f35b6113c6611df6565b600854906113d760ff831615611b72565b895f80516020611f2183398151915254163314908115611964575b501561193257879060ff19161760085588888154168960035416813b156102b95782918483928b5194859384928b84528a8401526aa56fa5b99019a5c80000008c8401525af180156119005761191e575b508881541689845416813b156102b95782918483928b5194859384928b84528a8401526a295be96e640669720000008c8401525af180156119005761190a575b508881541693843b15610150578751908152308482015281818481836acecb8f27f4200f3a000000998a8c8401525af18015611900576118e8575b5050600754926114d184891c8095611beb565b908a876115128c8c54168d60035416988c5194858094819363a9059cbb60e01b9d8e84528d840160209093929193604081019460018060a01b031681520152565b03925af1908115610d9c578c916118cb575b5015610dcd578a8481896115778e8d818554169160025416905194858094819363095ea7b360e01b998a8452830160206acecb8f27f4200f3a00000091939293604081019460018060a01b031681520152565b03925af18015610dc3578b6115c5948f92948f84908f97968b97610da657505416936002541692519687958694859384528d840160209093929193604081019460018060a01b031681520152565b03925af18015610d9c576118ae575b506103844201804211610d6d57898b9796959493928d928960025416918a808654169454169a60035416908d519b8c9562e8e33760e81b87528a8701528b860152878501528560648501528460848501528460a485015260c484015260e4830152815a9361010492606095f1938b8515610d6257918b8992848d959a819961186a575b5061166589610a858d611bbe565b938d816117f0575b50508361179a575b50506002548b5163c45a015560e01b815296945086925084918391165afa928315610bcf5790879392918c9361177b575b508a808d541693818c54168b51988996879563e6a4390560e01b8752860152840152165afa918215610ba657967fac1d76749e5447b7b16f5ab61447e1bd502f3bb4807af3b28e620d1700a6ee459286927f17b1a568460bc127a7f9a9677d502ac593fa4af690a1c3aed38bda591e196e2e98998b9261175c575b508351958652868601521692a260065490600754908351928352820152a1805f80516020611f4183398151915255805f8080808080806113aa565b611774919250873d8911610b9f57610b908183611b34565b905f611721565b611793919350843d8611610b9f57610b908183611b34565b915f6116a6565b94546003548d5192835283166001600160a01b0316888301908152602081019490945290948593849003604001928492165af1908115610bcf57906117e5918c91610c305750611c59565b87865f8b818e611675565b825460035491518581529186166001600160a01b03168b83019081526020810193909352959750929592949293859316918391829060400103925af1908115610d10578d9161184d575b5015610cba5789918b89928e5f8d61166d565b6118649150893d8b11610c5657610c488183611b34565b5f61183a565b9a50975092505091506060873d6060116118a6575b8161188c60609383611b34565b81010312610d565789918b8992838a519a0151975f611657565b3d915061187f565b6118c490883d8a11610c5657610c488183611b34565b505f6115d4565b6118e29150883d8a11610c5657610c488183611b34565b5f611524565b6118f190611b0c565b6118fc57885f6114be565b8880fd5b88513d84823e3d90fd5b61191390611b0c565b6118fc57885f611483565b61192790611b0c565b6118fc57885f611443565b865162461bcd60e51b8152808401879052600e818701526d139bdd08185d5d1a1bdc9a5e995960921b81840152606490fd5b9050600654145f6113f2565b8392919c5061197e90611b0c565b5f9b9091611344565b8a513d5f823e3d90fd5b610c509150893d8b11610c5657610c488183611b34565b89513d5f823e3d90fd5b915050670de0b6b3a76400006119d0826119ca611d39565b90611c10565b045f6112ab565b601187634e487b7160e01b5f525260245ffd5b845162461bcd60e51b81528088018590526016602482015275151bdad95b88185b5bdd5b9d081d1bdbc81cdb585b1b60521b6044820152606490fd5b845162461bcd60e51b8152808801859052601960248201527f416c6c20746f6b656e732068617665206265656e20736f6c64000000000000006044820152606490fd5b825162461bcd60e51b8152808601839052602260248201527f5553444320616d6f756e74206d7573742062652067726561746572207468616e604482015261020360f41b6064820152608490fd5b823461069e575f36600319011261069e57602090516aa56fa5b99019a5c80000008152f35b3461069e575f36600319011261069e576020906005548152f35b600435906001600160a01b038216820361069e57565b67ffffffffffffffff8111611b2057604052565b634e487b7160e01b5f52604160045260245ffd5b90601f8019910116810190811067ffffffffffffffff821117611b2057604052565b67ffffffffffffffff8111611b2057601f01601f191660200190565b15611b7957565b60405162461bcd60e51b815260206004820152601960248201527f53616c6520697320616c72656164792066696e616c697a6564000000000000006044820152606490fd5b906acecb8f27f4200f3a000000918203918211611bd757565b634e487b7160e01b5f52601160045260245ffd5b91908203918211611bd757565b90620f424091828102928184041490151715611bd757565b81810292918115918404141715611bd757565b8115611c2d570490565b634e487b7160e01b5f52601260045260245ffd5b9081602091031261069e5751801515810361069e5790565b15611c6057565b60405162461bcd60e51b81526020600482015260146024820152731554d110c81d1c985b9cd9995c8819985a5b195960621b6044820152606490fd5b91908201809211611bd757565b600654906b019d971e4fe8401e7400000090818314611d32578215611d0d57611cd0611d39565b670de0b6b3a764000091828102928184041490151715611bd757611cf391611c23565b918103908111611bd757808211611d08575090565b905090565b670de0b6b3a7640000808202935081159184041417159050611bd757620186a0900490565b5050505f90565b6006548015611d7d5764e8d4a5100090048015611d7d57611d7a90611d74611d6a611d65600754611bf8565b611bf8565b9160055490611c10565b90611c23565b90565b50620186a090565b6001600160a01b03908116908115611dde575f80516020611f2183398151915280546001600160a01b031981168417909155167f8be0079c531659141344cd1fd0a4f28419497f9722a3daafe3b4186f6b6457e05f80a3565b604051631e4fbdf760e01b81525f6004820152602490fd5b5f80516020611f418339815191526002815414611e135760029055565b604051633ee5aeb560e01b8152600490fd5b9081602091031261069e57516001600160a01b038116810361069e5790565b5f80516020611f21833981519152546001600160a01b03163303611e6457565b60405163118cdaa760e01b8152336004820152602490fd5b60ff7ff0c57e16840df040f15088dc2f81fe391c3923bec73e23a9662efc9c229c6a005460401c1615611eab57565b604051631afcd79f60e31b8152600490fd5b90611ee45750805115611ed257805190602001fd5b60405163d6bda27560e01b8152600490fd5b81511580611f17575b611ef5575090565b604051639996b31560e01b81526001600160a01b039091166004820152602490fd5b50803b15611eed56fe9016d09d72d40fdae2fd8ceac6b6234c7706214fd39c1cd1e609a0528c1993009b779b17422d0df92223018b32b4d1fa46e071723d6817e2486d003becc55f00a26469706673582212201b251d18d510456399801382504c82607dcb248bdb602c89668a03312c8f893564736f6c63430008170033","linkReferences":{}},"methodIdentifiers":{"CREATOR_ALLOCATION()":"2bc73063","LIQUIDITY_ALLOCATION()":"f9428f38","PLATFORM_FEE_ALLOCATION()":"39433a92","SALE_ALLOCATION()":"de1b27f5","UPGRADE_INTERFACE_VERSION()":"ad3cb1cc","buyTokens(uint256)":"3610724e","calculateTokenAmount(uint256)":"a24bcf46","finalizeSale()":"58a687ec","fundCreator()":"b1ef04e1","getCurrentPrice()":"eb91d37e","initialize(address,address,address,address,address,uint256)":"95b6ef0c","isFinalized()":"8d4e4083","owner()":"8da5cb5b","platform()":"4bde38c8","proxiableUUID()":"52d1902d","renounceOwnership()":"715018a6","reserveRatio()":"0c7d5cd8","token()":"fc0c546a","tokensSold()":"518ab2a8","transferOwnership(address)":"f2fde38b","uniswapRouter()":"735de9f7","upgradeToAndCall(address,bytes)":"4f1ef286","usdc()":"3e413bee","usdcRaised()":"92d6b6f3"},"id":42}